:100000000C94E5010C940D020C940D020C940D025D
:100010000C940D020C940D020C940D020C94AD1076
:100020000C940D020C940D020C940D020C94801291
:100030000C940D020C940D020C940D020C940D0204
:100040000C9463100C940D020C942F110C94091154
:100050000C940D020C940D020C940D020C940D02E4
:100060000C9461110C940D02020000000024002782
:10007000002A0000000000250028002B00000000DE
:100080000800020100000304070000000000000057
:1000900000000000002300260029000404040404DA
:1000A0000404040202020202020303030303030125
:1000B00002040810204080010204081020010204FC
:1000C000081020207F010100000000000000000057
:1000D00000005E00000000000006000006000000B6
:1000E000247E24247E240000246B2A2A6B12000024
:1000F0004626100864620000344A4A54205000002A
:10010000000000060000000000003C42000000006B
:100110000000423C000000002A1C3E1C2A00000097
:1001200008083E0808000000004030000000000001
:10013000080808080808000000004000000000004F
:1001400040201008040200003C62524A463C000075
:1001500040447E404000000064525252524C000025
:1001600024424A4A4A340000382422227E200000D9
:100170002E4A4A4A4A3200003C4A4A4A4A30000063
:10018000020262120A060000344A4A4A4A34000057
:100190000C525252523C00000000240000000000AB
:1001A00000402400000000000008142200000000AD
:1001B0001414141414140000000022140800000089
:1001C0000402520A0400000018245A5A241800009D
:1001D0007C121212127C00007E4A4A4A4A34000005
:1001E0003C424242422400007E424242423C0000E5
:1001F0007E4A4A4A424200007E0A0A0A020200007F
:100200003C424252523400007E080808087E00003A
:1002100000427E420000000020404040403E00007E
:100220007E080808146200007E4040404040000004
:100230007E040808047E00007E040810207E000072
:100240003C424242423C00007E121212120C00005C
:100250003C425262423C00007E121212324C0000BC
:10026000244A4A4A4A30000002027E02020000008C
:100270003E404040403E00001E204040201E000006
:100280007E201010207E0000422418182442000016
:1002900002047804020000004262524A4642000012
:1002A000007E4242000000000204081020400000CE
:1002B000000042427E0000000000040204000080B2
:1002C00080808080808080000000020400000000A8
:1002D00020545454780000007E4848483000000004
:1002E0003844444428000000304848487E0000005C
:1002F000385454544800000000087C0A02000000F2
:1003000018A4A4A47C0000007E0808087000000067
:1003100000487A4000000000408080887A00000099
:100320007E1010284400000000427E4000000000C3
:100330007C047804780000007C0404047800000049
:100340003844444438000000FC4444443800000071
:1003500038444444FC0000007C080404040000000D
:10036000485454542400000000043E44000000009F
:100370003C4040207C0000001C2040201C0000006D
:100380001C601C601C000000442810284400000071
:100390001CA0A0A07C0000004464544C4400000059
:1003A00000083641000000000000FF0000000000CF
:1003B000004136080000000804040810100800007E
:1003C0000000000000000000021511241FBECFEF46
:1003D000D8E0DEBFCDBF11E0A0E0B1E0E8EFFFE480
:1003E00002C005900D92AE3DB107D9F724E0AEED05
:1003F000B1E001C01D92A737B207E1F711E0C5EEE9
:10040000D1E004C02197FE010E94C826C43ED10756
:10041000C9F70E9479150C94FA270C9400008230D9
:10042000910538F0880F991F880F991F059701973C
:10043000F1F708959B01DC011896ED91FC9141E0E4
:1004400067E10994833081F028F4813099F082309B
:10045000A9F008958730A9F08830C9F08430B1F44C
:10046000809180008F7D03C0809180008F77809382
:100470008000089584B58F7784BD089584B58F7DFD
:10048000FBCF8091B0008F778093B000089580916A
:10049000B0008F7DF9CFCF93DF93282F30E0F901A3
:1004A000E358FF4F8491F901E155FF4FD491F901D1
:1004B000E556FF4FC491CC23A1F081110E94220286
:1004C000EC2FF0E0EE0FFF1FEF56FF4FA591B49118
:1004D000EC91ED2381E090E009F480E0DF91CF9191
:1004E000089580E090E0FACF1F93CF93DF93282FF9
:1004F00030E0F901E358FF4F8491F901E155FF4FD6
:10050000D491F901E556FF4FC491CC23A9F0162FE1
:1005100081110E942202EC2FF0E0EE0FFF1FED5838
:10052000FF4FA591B4918FB7F894EC91111108C0C9
:10053000D095DE23DC938FBFDF91CF911F9108957B
:10054000DE2BF8CFCF93DF9390E0FC01E155FF4F16
:10055000249185569F4FFC0184918823C9F090E037
:10056000880F991FFC01E759FF4FA591B491FC0139
:10057000ED58FF4FC591D49161110DC09FB7F8940C
:100580008C91209582238C938881282328839FBF78
:10059000DF91CF910895623051F49FB7F8943C9168
:1005A000822F809583238C93E8812E2BEFCF8FB7FA
:1005B000F894EC912E2B2C938FBFEACF3FB7F89491
:1005C0008091390390913A03A0913B03B0913C0391
:1005D00026B5A89B05C02F3F19F00196A11DB11D9E
:1005E0003FBFBA2FA92F982F8827BC01CD01620FDA
:1005F000711D811D911D42E0660F771F881F991F95
:100600004A95D1F708958F929F92AF92BF92CF9261
:10061000DF92EF92FF926B017C010E94DE024B01A0
:100620005C01C114D104E104F104B9F00E94DE02BE
:10063000681979098A099B09683E7340810591050B
:1006400080F321E0C21AD108E108F10888EE880E93
:1006500083E0981EA11CB11CE4CFFF90EF90DF90C7
:10066000CF90BF90AF909F908F9008952FB7F89440
:100670006091350370913603809137039091380370
:100680002FBF08950895089580E008959091000186
:1006900089130BC0E8E6F0E0E4919FEF909300012E
:1006A000E13049F028F0E23061F060E00C9474022F
:1006B00010926E00FACF90916F009D7F90936F0023
:1006C000F4CF909170009D7F9093700091E0909393
:1006D000B0009091B100987F94609093B100109217
:1006E000B300E3CF4F925F926F927F928F929F926F
:1006F000AF92BF92CF92DF92EF92FF920F931F9330
:10070000CF93DF9300D000D01F92CDB7DEB78B011F
:1007100029013A01909100018917C9F09F3F09F41E
:100720007EC00F900F900F900F900F90DF91CF91A0
:100730001F910F91FF90EF90DF90CF90BF90AF90FF
:100740009F908F907F906F905F904F900895E8E614
:10075000F0E094919D8397FDE4CF61E00E94A202B6
:100760008D81882321F09D81923009F04AC1480192
:10077000B12CA12C60E072E18AE790E0A50198011C
:100780000E94572429833A834B835C8369017A0151
:1007900081E0C81AD108E108F1089FEFC916D10419
:1007A000E104F10409F00CF401C160E472E48FE0AB
:1007B00090E0A50198010E94572469017A0181E027
:1007C000C81AD108E108F1089D81923009F0A2C051
:1007D0008FEFC816D104E104F10409F00CF4E6C16E
:1007E00060E970ED83E090E0A50198010E94572434
:1007F00069017A0191E0C91AD108E108F1088FEF87
:10080000C816D104E104F10411F00CF07FC183E0BB
:100810009091B100987F892B8093B100CFC08093D5
:100820000001E8E6F0E094919D839F3F09F479CFC1
:10083000913041F150F0923009F446C09D8197FD0E
:1008400070CF61E00E94A2028ECF14BC15BC94B59B
:10085000926094BD95B5916095BD282F30E0F90167
:10086000E556FF4FE491F0E0EE0FFF1FED58FF4F0C
:1008700045915491F901E155FF4FE491E0936902EC
:100880001D826BCF109280001092810090918100A8
:100890009860909381009091810091609093810085
:1008A000282F30E0F901E556FF4FE491F0E0EE0F1C
:1008B000FF1FED58FF4F45915491F901E155FF4F4E
:1008C000E491E093680249CF1092B0001092B10019
:1008D0009091B00092609093B0009091B1009160BF
:1008E0009093B100282F30E0F901E556FF4FE491D5
:1008F000F0E0EE0FFF1FED58FF4F459154915093DC
:10090000730240937202F901E155FF4FE491E093C5
:10091000740223CF9FEFC916D104E104F10409F05A
:100920000CF46DC068E478EE81E090E0A5019801D8
:100930000E94572469017A0181E0C81AD108E108B0
:10094000F1089D81992309F4FAC08FEFC816D104EC
:10095000E104F10411F00CF0FBC0EFC064E274EFAD
:1009600080E090E0A50194010E94572469017A017A
:1009700081E0C81AD108E108F10885E09FEFC916A7
:10098000D104E104F10409F008F442CF62E17AE70E
:1009900080E090E0A50194010E94572469017A014A
:1009A00081E0C81AD108E108F108E5C081E09D8125
:1009B00091112ECF95B5987F892B85BD2FEF3FEFF5
:1009C000A901411451046104710409F043C09D81DF
:1009D000913009F45EC0923009F46DC09111A1CE3E
:1009E000C7BC20936E0230936F0240937002509305
:1009F000710280916E00826080936E0092CE82E0E0
:100A0000D6CFB12CA12C60E072E18AE790E0A5017D
:100A100098010E94572469017A0181E0C81AD1081F
:100A2000E108F108C114D10491E0E906F10404F5EC
:100A300091E08D81813011F680918100887F892B32
:100A4000809381002FEF3FEFA9014114510461040D
:100A50007104F9F0D801AA0FBB1FA30192010E94F3
:100A6000762428EE33E040E050E00E948924AFCFA6
:100A700068E478EE81E090E0A50198010E94572497
:100A800069017A0181E0C81AD108E108F10893E010
:100A9000D0CFD0928900C092880020936A02309310
:100AA0006B0240936C0250936D0280916F008260E4
:100AB00080936F0036CEC092B300209375023093BE
:100AC00076024093770250937802809170008260A2
:100AD0008093700026CE84E09FEFC916D104E10414
:100AE000F10409F008F466CFC980DA80EB80FC805D
:100AF0008AE0F594E794D794C7948A95D1F781E07A
:100B0000C81AD108E108F10885E054CF68E478EE0E
:100B100081E090E0A50198010E94572469017A01C3
:100B200081E0C81AD108E108F1089FEFC916D10485
:100B3000E104F10411F00CF011CF84E069CE83E000
:100B40009FEFC916D104E104F10409F00CF432CF8F
:100B500062E17AE780E090E0A50194010E945724C9
:100B600069017A0181E0C81AD108E108F1089D8184
:100B7000992309F4B0CF86E09FEFC916D104E104B0
:100B8000F10409F008F444CEC980DA80EB80FC80DF
:100B90009AE0F594E794D794C7949A95D1F781E0B9
:100BA000C81AD108E108F10887E032CE82E030CEE1
:100BB000AF92BF92CF92DF92EF92FF920F931F936B
:100BC000CF93DF936C017B018B01040F151FEB01A9
:100BD0005E01AE18BF08C017D10759F06991D60160
:100BE000ED91FC910190F081E02DC6010995892BD2
:100BF00079F7C501DF91CF911F910F91FF90EF9091
:100C0000DF90CF90BF90AF900895FC01538D448D3D
:100C1000252F30E0842F90E0821B930B541710F0A7
:100C2000CF96089501970895FC01918D828D9817B4
:100C300061F0A28DAE0FBF2FB11D5D968C91928D8C
:100C40009F5F9F73928F90E008958FEF9FEF0895BD
:100C5000FC01918D828D981731F0828DE80FF11D86
:100C6000858D90E008958FEF9FEF0895FC01918DA1
:100C7000228D892F90E0805C9F4F821B91098F739A
:100C8000992708958DE893E00E94360621E0892B8C
:100C900009F420E0822F089580E090E0892B29F06C
:100CA0000E94420681110C9400000895FC01A48D5D
:100CB000A80FB92FB11DA35ABF4F2C91848D90E07E
:100CC00001968F739927848FA689B7892C93A08961
:100CD000B1898C91837080648C93938D848D9813EB
:100CE00006C00288F389E02D80818F7D808308957E
:100CF000EF92FF920F931F93CF93DF93EC0181E06C
:100D0000888F9B8D8C8D98131AC0E889F989808112
:100D100085FF15C09FB7F894EE89FF896083E88945
:100D2000F98980818370806480839FBF81E090E037
:100D3000DF91CF911F910F91FF90EF900895F62EC4
:100D40000B8D10E00F5F1F4F0F731127E02E8C8D5E
:100D50008E110CC00FB607FCFACFE889F9898081A3
:100D600085FFF5CFCE010E945606F1CFEB8DEC0F3B
:100D7000FD2FF11DE35AFF4FF0829FB7F8940B8FC0
:100D8000EA89FB8980818062CFCFCF93DF93EC012A
:100D9000888D8823B9F0AA89BB89E889F9898C9163
:100DA00085FD03C0808186FD0DC00FB607FCF7CF1F
:100DB0008C9185FFF2CF808185FFEDCFCE010E941F
:100DC0005606E9CFDF91CF910895DC011A96ED9197
:100DD000FC9130E020E00994CF92DF92FF920F93D4
:100DE0001F93CF93DF9300D000D01F92CDB7DEB713
:100DF0008C011C8281E08B837A836983D801ED9119
:100E0000FC91F1881D82F801A081B181C480D58058
:100E10009E012F5F3F4F50964C916FE0C801F60145
:100E200009958D818F5F8D838F1568F30F900F90DB
:100E30000F900F900F90DF91CF911F910F91FF9026
:100E4000DF90CF900895DC011696ED91FC9130E093
:100E500020E040E069E10994DC011696ED91FC91F7
:100E600030E020E040E068E109949A01DC01169648
:100E7000ED91FC91462F67E10994EF92FF920F9359
:100E80001F93CF93DF931F92CDB7DEB77C018B0109
:100E9000D8016C91673129F150F46531A0F40F90BD
:100EA000DF91CF911F910F91FF90EF9008956A31DC
:100EB00018F16E3FA1F7F8014181498369E2C7014A
:100EC0000E94E5060BC0F80141814983D7011696BF
:100ED000ED91FC9130E020E0C70109950E5F1F4FB6
:100EE000D7CFF80181818983AE014F5F5F4F61E009
:100EF000C7010E943507F2CF0F5F1F4FD70116962B
:100F0000ED91FC9130E020E040E0C7010995C0CFB1
:100F1000462FDC011696ED91FC9130E020E066E171
:100F20000994462FDC011696ED91FC9130E020E00B
:100F300065E10994EF92FF920F931F93CF93DF9394
:100F4000EC01042F79016D3009F446C050F46B3088
:100F5000C9F1693009F49FC06A3009F465C080E0C6
:100F600046C06E3009F452C06F3099F70E942C07CA
:100F7000F7011381110F110F110F6C89160F60E427
:100F8000CE010E949107612F62956F706061CE0162
:100F90000E949107612F6F70CE010E948807F701B0
:100FA0006481606BCE010E948807F7014081518106
:100FB0006281660F660F660FCE010E9435070150F1
:100FC000A1F72EC065E371E0442311F060E371E006
:100FD000CE010E943D070AC0411110C069E271E0D4
:100FE0000E943D07E881F98182898C8B81E0DF9145
:100FF000CF911F910F91FF90EF90089562E271E001
:101000000E943D07E881F9818389EFCF0E942C0778
:1010100061E8CE010E949107602FCE010E948807EF
:10102000CE010E942307E2CFEA85FB8530E020E075
:1010300040E068E2CE010995EE81FF8130E020E0DA
:1010400040E064E1CE01099541E06BE4CE010E94ED
:10105000E506E881F981448169E2CE010E94E50656
:1010600040E06BE4CE010E94E506E881F98144810D
:1010700069E2CE010E94E50641E06BE4CE010E94E8
:10108000E506E881F981458169E2CE010E94E50625
:101090006AE371E09DCF8FE691E0998388831C8A93
:1010A000A5CFDC011896ED91FC9130E020E040E006
:1010B00069E10994DC011896ED91FC9130E020E0A3
:1010C00040E068E10994CF93DF931F92CDB7DEB77C
:1010D0006983BE016F5F7F4F0E941A020F90DF91FC
:1010E000CF910895EF92FF921F93CF93DF93EC017E
:1010F000162F7A010E945A0860E4CE010E9463080C
:10110000E885F9859701412F67E1CE010995CE0168
:10111000DF91CF911F91FF90EF900C945108EF92C7
:10112000FF921F93CF93DF93EC01142F7901663167
:1011300081F138F4643109F44BC0653179F080E015
:1011400022C06831C9F150F16931C9F78091670255
:10115000882391F1CE010E9451082EC08091670230
:10116000882319F0CE010E945108CE010E945A082E
:1011700060E0CE010E946308612FCE010E946308E7
:1011800081E080936702DF91CF911F91FF90EF90F4
:101190000895642F0E94630881E0F5CF8091670273
:1011A000882319F0CE010E945108A701193138F4A3
:1011B000612FCE010E94720810926702EDCF68E1A4
:1011C000CE010E947208185188E1E80EF11CEDCFA3
:1011D0008E898F3F11F488E78E8BE885F98597011A
:1011E000412F64E1CE01DF91CF911F91FF90EF90ED
:1011F0000994CF93DF93EC01A889B989FD0134915B
:1012000031969491319684911396FD01A4916317C0
:10121000A8F1961798F1631B770B8A9FE02D112494
:10122000E69FC001E79F900D1124280F392F311D33
:1012300083E0220F331F8A95E1F7C9010496DA0192
:10124000245F3F4FE889F989E80FF91FE491ED9396
:10125000019682179307B1F78D89882361F0FA010F
:101260009A01285F3F4F8191DF01119780958C9300
:101270002E173F07C1F7DF91CF910895FA01CA01F8
:1012800008961192E817F907E1F7E6CF0F931F933D
:10129000CF93DF938C01C62F642FCC32E8F4CA328F
:1012A00008F041C0C83271F1C93209F442C080E08F
:1012B000C034D0F1CF73F801EC0FF11D868D8F3F54
:1012C00091F1C031E0F00E944B0221E0892B09F43A
:1012D00020E0F801218F27C0CD3289F140F384EB63
:1012E0008C0F823020F7CF73C00FD12FD11D8E8D80
:1012F00041112EC061E00E94A20260E08E8D0E942A
:10130000740211C0025E1F4FD0E0F80181918F017D
:101310008F3F31F061E0D03108F062E00E94A2021C
:10132000DF5FD63191F781E0DF91CF911F910F916F
:10133000089570E090E080E00E940303F4CF85E020
:1013400090E0433010F082E090E00E940F02EBCF7B
:1013500062E00E94A202E7CF2F923F924F925F92EB
:101360006F927F928F929F92AF92BF92CF92DF92B5
:10137000EF92FF920F931F93CF93DF93CDB7DEB71A
:101380002D970FB6F894DEBF0FBECDBFDC0154968B
:10139000ED91FC915597D996DC90D997CF010396A2
:1013A0006A3019F5FC018491D80ED996DC92D99750
:1013B000D8961C9281E090E02D960FB6F894DEBF8F
:1013C0000FBECDBFDF91CF911F910F91FF90EF9096
:1013D000DF90CF90BF90AF909F908F907F906F9055
:1013E0005F904F903F902F90089532962490D8961A
:1013F0005C90D8975D0124E0A20EB11CF490FC0132
:10140000E490352C3F0CED0C81E0850D381610F47E
:10141000FF24F394C62E8D01612CCE0101964C0160
:10142000462C752C242DA4016C2DC5010E94F908B1
:101430007C86DD8691E09B879A868986D8011896FE
:10144000ED91FC919E01275F3F4F41E06FE0C501A8
:10145000099543947394731428F3D3946F0CDE149A
:10146000F8F2F80180AD820D80AFA4CF2091440244
:10147000260F3327331F21323105ECF4209163030B
:10148000FC0190E080E0243069F082E00895A091B2
:1014900044022191AC014C5D5D4FA40FB52FB11DED
:1014A0002C930196861798F380914402680F6093FD
:1014B000440280E0089581E008951092630381E082
:1014C0008093620310923D0361E082E10E94740206
:1014D00061E083E10E947402E9EBF0E080818E7F9D
:1014E000808380818D7F808388E48093B80085E449
:1014F0008093BC000895CF93DF9391E090932302F3
:101500008823B9F0C091B800D091BA008091BC0096
:101510008A7B8093BC0060E082E10E94740260E0FC
:1015200083E10E9474020E945D0AD093BA00C093C6
:10153000B800DF91CF910895CF92DF92EF92FF92A2
:101540000F931F93CF93DF93D0918C0381E0D1321F
:1015500008F09CC0C0918B030E94DE026B017C01ED
:101560008091630381116CC082E08093630381E00A
:10157000809362038FEF8093610310926003D09396
:101580005F03ABE6B3E0EFE3F3E080E0D8138DC098
:1015900010923E0380913E03CC0FC82BC0933E03B4
:1015A00080913D03813009F084C010923D030E9478
:1015B000DE026B017C0180913E038093BB00809131
:1015C000650390916603A0916703B0916803892B2E
:1015D0008A2B8B2BA1F00E94DE02009165031091F3
:1015E000660320916703309168036C197D098E09A9
:1015F0009F09061717072807390708F442C080918A
:10160000BC0083FDD8CF85EC8093BC000E94DE0235
:101610006B017C0180916303823009F44CC080919E
:1016200061038F3F09F469C080916103803209F43E
:1016300066C080916103803309F463C084E026C0F2
:101640008091650390916603A0916703B091680350
:10165000892B8A2B8B2B09F483CF0E94DE02009109
:1016600065031091660320916703309168036C193C
:101670007D098E099F09061717072807390708F003
:101680006FCF809164030E947B0A85E010926A0309
:1016900010928C0310926903DF91CF911F910F91EB
:1016A000FF90EF90DF90CF9008959D9191938F5F81
:1016B0006DCF85EEA9CF8091650390916603A091CF
:1016C0006703B0916803892B8A2B8B2B09F4A2CF77
:1016D0000E94DE020091650310916603209167036A
:1016E000309168036C197D098E099F090617170749
:1016F0002807390708F08ECFC4CF80E0C7CF82E03B
:10170000C5CF83E0C3CF0895E091800280917F022E
:10171000E81730F4F0E0ED5FFD4F808190E0089530
:101720008FEF9FEF08959091800280917F022FEFBD
:101730003FEF981748F4E92FF0E0ED5FFD4F20816F
:1017400030E09F5F90938002C901089580917F02ED
:1017500090918002891B990B0895CF92DF92EF92AE
:10176000FF920F931F93CF93DF937C01CB018A01EC
:1017700020916903222389F0EB016B01C40ED51E71
:10178000CC15DD0569F06991D701ED91FC910190CF
:10179000F081E02DC7010995F3CF642F0E94360A2E
:1017A000C801DF91CF911F910F91FF90EF90DF90D3
:1017B000CF900895CF93DF93EC01962F683109F411
:1017C00045C0B901993130F4943199F0973159F00D
:1017D00080E006C0993109F45BC09032C9F781E01E
:1017E000DF91CF91089550E08AE294E00E94AD0B22
:1017F000F6CF8C859D85AE85BF85892B8A2B8B2B5B
:1018000071F4E881F981A585B0E020EA36E841E08D
:1018100050E00E9476246C877D878E879F87109288
:10182000800210927F0210926A0310928C030E9431
:101830005D0A82E493E090937C0280937B0283E4D0
:1018400093E090937E0280937D02C9CF2C853D85E5
:101850004E855F8560E074E284EF90E00E94892409
:1018600020513109410951095695479537952795DA
:101870002093B8008E8990E09595879591E090939C
:10188000690380938B0310926A0310928C03A7CF95
:101890000E949C0AA4CFCF93DF931F92CDB7DEB7EF
:1018A0006983209169032223F9F020918C0320326F
:1018B00058F021E030E0FC013383228390E080E0A7
:1018C0000F90DF91CF91089580916A03E82FF0E0A7
:1018D000E559FC4F998190838F5F80936A038093D1
:1018E0008C0381E090E0ECCF61E0CE0101960E9494
:1018F000360AF7CFFC01248131E03093690320934D
:101900008B0310926A0310928C038385682B8AE202
:1019100094E00E944B0C0C949C0A862F0C944B0272
:10192000862F642F0C947402862F642F0C94A202CD
:10193000FC01838194810C940F02EF92FF920F932C
:101940001F93CF93DF93EC01062F18E061E08881AD
:101950000E94A202CE010E94980CE02EF12C60E0C1
:1019600000FF61E089810E94A202CE010E94980CD2
:1019700060E088810E94A202CE010E94980CF5943A
:10198000E7940E2D115011F761E088810E94A202A8
:1019900060E089810E94A202CE010E94980C60E062
:1019A00088810E94A202CE010E94980C89810E9427
:1019B0004B02182F811104C061E089810E94A202AC
:1019C000CE010E94980C61E088810E94A202CE01A3
:1019D0000E94980C81E0111101C080E0DF91CF914D
:1019E0001F910F91FF90EF900895CF93DF93EC013B
:1019F00061E089810E94A202CE010E94980C60E001
:101A000088810E94A202CE010E94980C60E0898128
:101A10000E94A202CE01DF91CF910C94980CCF933B
:101A2000DF93EC0161E089810E94A202CE01DF9187
:101A3000CF910C94980CDF92EF92FF920F931F932B
:101A4000CF93DF93EC01D62EF72EE42E122F0E94B7
:101A50000F0D60E4CE010E949D0CCE010E94F50C9A
:101A6000CE010E940F0D612F63706054CE010E9461
:101A70009D0C0D2D1F2DE00EF12EF11C0E151F05D6
:101A800039F0F80161918F01CE010E949D0CF6CFD3
:101A9000CE010E94F50CCE010E940F0D6A816F707D
:101AA0006058CE010E949D0CCE01DF91CF911F9115
:101AB0000F91FF90EF90DF900C94F50C6F927F9256
:101AC0008F929F92AF92BF92CF92EF92FF920F931D
:101AD0001F93CF93DF9300D000D0CDB7DEB75C016A
:101AE0003A014E2D30E067FF02C0619531E0E42FEE
:101AF000F0E0CE0101964C016114710451F5011121
:101B000028C020E03197822F90E08E179F0734F491
:101B1000880D991DDC011C922F5FF5CFE80DF91D92
:101B20008FE380832C2DB401C5010E941B0D0F9003
:101B30000F900F900F90DF91CF911F910F91FF9019
:101B4000EF90CF90BF90AF909F908F907F906F90CD
:101B50000895E80DF91DE62E660FFF0810E48E16B5
:101B60009F06F1F0C301B7010E94A026582F3197BC
:101B700081110BC06114710441F4011106C010827F
:101B8000332361F0108330E009C08E5E9E4FDC018C
:101B90008C918083511102C0672891F33B01DFCF04
:101BA000222309F4BFCFB4016C5F7F4F9191DF0115
:101BB0001197822F8078892B8C93220FE617F707D5
:101BC000A9F7B0CFCF92DF92EF92FF92CF93DF933E
:101BD000DC011796CC911797D0E06111DC2F189695
:101BE0002C91189730E0220F331F2F563F4F50E0B3
:101BF00040E0F90185919491FC01F080BA0190E0F8
:101C000080E0EF2DEC23ED1310C04F5F5F4F1D966A
:101C1000CD90DD90ED90FC9050976C157D058E0574
:101C20009F0538F36FEF7FEFCB01DF91CF91FF90EE
:101C3000EF90DF90CF9008958F929F92AF92BF92D6
:101C4000CF92DF92EF92FF920F931F93CF93DF9388
:101C5000CDB7DEB7C054D1400FB6F894DEBF0FBE8B
:101C6000CDBF8C010E943603F801C184D284E38485
:101C7000F4849B01AC012C193D094E095F096901EF
:101C80007A0130EDC31637E0D306E104F104A8F47D
:101C90008189C05CDE4F0FB6F894DEBF0FBECDBFAA
:101CA000DF91CF911F910F91FF90EF90DF90CF9038
:101CB000BF90AF909F908F900895618772878387C0
:101CC00094871482138212821182108262E08581CD
:101CD0000E94A20261E070E080E090E00E940303B5
:101CE00061E0F80185810E94A20260E0F80185812F
:101CF0000E947402F801868185518230E8F48BE2FB
:101D000091E10197F1F762E0F80185810E94A2025A
:101D1000F801828990E00E940F02F89460E0C80107
:101D20000E94E20D6F3F7F4F8F4F9F4F61F4F8018C
:101D3000118A789480E0ADCF64E170E080E090E0BB
:101D40000E940303E0CF61E0C8010E94E20D6F3FF3
:101D50007F4F8F4F9F4F59F39E012F5F3F4F790168
:101D60005E013FEBA31A3EEFB30A670160E0C801D2
:101D70000E94E20DF601608371838283938361E0A8
:101D8000C8010E94E20DF601648375838683978300
:101D9000F8E0CF0ED11CCA14DB0441F7789430E090
:101DA00020E0F70180809180A280B380448155813A
:101DB00066817781FFEF8F169F06AF06BF0631F071
:101DC0004F3F8FEF58076807780719F4F801118A19
:101DD000B1CFF90183E0F595E7958A95E1F7E00F3A
:101DE000F11F8081880F84169506A606B706F0F0CD
:101DF00080832F5F3F4FF8E0EF0EF11C2832310552
:101E000081F6F801448120818181280F3327331F17
:101E10008281280F311D8381820F932F911D992775
:101E20004817190699F681E0818B33CF8160E0CFA6
:101E3000CF93DF93EC018E819F8197FD0CC061E011
:101E40000E94A20260E08E810E94740281E0898378
:101E5000DF91CF910895198280E0FACFCF93DF937D
:101E6000CDB7DEB728970FB6F894DEBF0FBECDBF53
:101E700022E0240F29839A838B83962FDE01149608
:101E8000FB018E2F891B841718F481918D93F9CF54
:101E900050E04D5F5F4FBE016F5F7F4F8DE893E075
:101EA0000E94D80528960FB6F894DEBF0FBECDBFAE
:101EB000DF91CF910895CF93DF9300D01F92CDB7DC
:101EC000DEB79091790220917A0229839A838B83DD
:101ED00043E0BE016F5F7F4F81E390E00E942E0FD1
:101EE0000F900F900F90DF91CF9108950F931F9354
:101EF000CF93DF93CDB7DEB728970FB6F894DEBF48
:101F00000FBECDBF8A019B014D835E836F837887AF
:101F100009831A832B833C8344E0BE016F5F7F4FAC
:101F20000E942E0F28960FB6F894DEBF0FBECDBFCD
:101F3000DF91CF911F910F91089540E070E060E034
:101F40000C942E0FCF92DF92EF92FF920F931F937C
:101F5000CF93DF936C01EB017B01E40EF51E10E0E3
:101F600000E0CE15DF0561F06991D601ED91FC919D
:101F70000190F081E02DC6010995080F191FF1CFDE
:101F8000C801DF91CF911F910F91FF90EF90DF90EB
:101F9000CF900895089590E080E008950F931F93E7
:101FA000762F89019A0190E0FC01E155FF4F649181
:101FB000FC01E556FF4FE4917111762FF0E0EE0F32
:101FC000FF1FEF56FF4F85919491472F0E943C13BE
:101FD000611571058105910529F06F5F7F4F8F4F66
:101FE0009F4F9F701F910F9108950F931F93CF9351
:101FF0008C01C62F0E947A0C6C2F6460C8010E946D
:102000007A0C6C2F6B7FC8010E947A0C83EC90E0F5
:102010000197F1F7CF911F910F9108950F931F939F
:10202000CF93DF938C01D62FC42F607F642B0E9447
:10203000F50F80E1D89FB00111246C2BC801DF910E
:10204000CF911F910F910C94F50F41E00E940E105B
:1020500081E090E0089585ED8093BC008091650358
:1020600090916603A0916703B09168030796A11D44
:10207000B11D23E0B695A795979587952A95D1F739
:102080002091BC0024FD03C0109263030895409189
:102090006503509166036091670370916803452B57
:1020A000462B472B69F30097A105B10541F02AE2C1
:1020B0002A95F1F700C00197A109B109E1CF8091FC
:1020C00064030C947B0A1F920F920FB60F92112497
:1020D0002F933F938F939F93AF93BF93809135033B
:1020E00090913603A0913703B091380330913403B7
:1020F00023E0230F2D3758F50196A11DB11D209324
:1021000034038093350390933603A0933703B09341
:1021100038038091390390913A03A0913B03B09129
:102120003C030196A11DB11D8093390390933A039E
:10213000A0933B03B0933C03BF91AF919F918F91CC
:102140003F912F910F900FBE0F901F90189526E88A
:10215000230F0296A11DB11DD2CF1F920F920FB671
:102160000F9211242F933F934F935F936F937F931D
:102170008F939F93AF93BF93EF93FF9380917502DB
:1021800090917602A0917702B0917802892B8A2BE8
:102190008B2BD1F190917402E0917202F091730255
:1021A0008081892780838091750290917602A09129
:1021B0007702B0917802181619061A061B069CF4CD
:1021C0008091750290917602A0917702B091780289
:1021D0000197A109B1098093750290937602A093AB
:1021E0007702B0937802FF91EF91BF91AF919F91E9
:1021F0008F917F916F915F914F913F912F910F90B0
:102200000FBE0F901F901895809100010E94460309
:10221000EACF1F920F920FB60F9211242F933F9384
:102220004F935F936F937F938F939F93AF93BF93DE
:10223000EF93FF938DE893E00E945606FF91EF9194
:10224000BF91AF919F918F917F916F915F914F91CE
:102250003F912F910F900FBE0F901F9018951F92D6
:102260000F920FB60F9211242F938F939F93EF939A
:10227000FF93E0919D03F0919E038081E091A30381
:10228000F091A40382FD1BC090818091A6038F5F13
:102290008F732091A703821741F0E091A603F0E02D
:1022A000E357FC4F958F8093A603FF91EF919F9189
:1022B0008F912F910F900FBE0F901F9018958081D6
:1022C000F4CF1F920F920FB60F9211242F933F93CA
:1022D0004F935F936F937F938F939F93AF93BF932E
:1022E000EF93FF938091B900887F803609F44AC04C
:1022F000F0F5883209F4A7C018F5803109F49BC0C5
:10230000B8F4882309F4F9C0883009F494C0FF9127
:10231000EF91BF91AF919F918F917F916F915F915D
:102320004F913F912F910F900FBE0F901F901895D6
:10233000883109F488C0803251F78093610314C05A
:10234000803409F49DC040F48033B9F38833F9F642
:102350008093610385ECB0C0803509F485C0883571
:1023600009F496C0883499F60E942B10D0CF883992
:1023700009F48CC038F5883729F050F4883611F00C
:10238000803729F683E0809363031092660257C07A
:10239000883809F47BC0803919F0803809F0B7CF4C
:1023A00080916602803208F071C0E091660281E09F
:1023B0008E0F809366028091BB00F0E0EA5BFD4FD8
:1023C00080833DC0803B39F0E0F4803A09F479C065
:1023D000883A09F09CCF84E0809363031092450211
:1023E00010924402E0917B02F0917C020995809169
:1023F000440281110FC081E08093440210922402B4
:1024000009C0803C09F4A6CF883C09F4A3CF883BDF
:1024100009F07DCFE091450281E08E0F8093450267
:10242000F0E0EC5DFD4F80818093BB009091450210
:102430008091440229C080913E038093BB0085ECCB
:102440008093BC0064CF9091600380915F039817E4
:1024500058F5E091600381E08E0F80936003F0E017
:10246000E15CFC4F8081E9CFE091600381E08E0F59
:10247000809360038091BB00F0E0E15CFC4F8083BF
:102480009091600380915F039817C8F285E8D8CFD8
:10249000E091600381E08E0F809360038091BB0028
:1024A000F0E0E15CFC4F80838091620381115CCF9E
:1024B00081E080933D0384EA8093BC001092630323
:1024C00026CF85EC8093BC00109263038091660256
:1024D000803230F4E0916602F0E0EA5BFD4F10825A
:1024E0006091660270E0E0917D02F0917E0286E4E8
:1024F00092E00995109266020ACF1092610334CFE0
:102500001F920F920FB60F9211242F933F934F9368
:102510005F936F937F938F939F93AF93BF93CF936B
:10252000DF93EF93FF9380910202C0915A04D0E0B1
:1025300087FF24C0109285001092840080910202CF
:102540008F5F8093020280910202082E000C990B8B
:102550008C179D0724F4809102028C30C4F1809185
:10256000840090918500049680349C4908F47AC0D8
:102570008091840090918500049676C0809102023B
:10258000082E000C990B8C179D07C4F6E0910202EF
:102590008E2FEE0F990BFC01EE0FFF1FE80FF91FB6
:1025A000EA5CFB4F808186FFC9CFE09102028E2F4B
:1025B000EE0F990BFC01EE0FFF1FE80FF91FEA5C0D
:1025C000FB4F808160E08F730E947402B7CF20912F
:1025D000840030918500E09102028E2FEE0F990B5E
:1025E000FC01EE0FFF1FE80FF91FEA5CFB4F818132
:1025F0009281820F931F9093890080938800E091CD
:1026000002028E2FEE0F990BFC01EE0FFF1FE80F59
:10261000F91FEA5CFB4F808186FF11C0E091020246
:102620008E2FEE0F990BFC01EE0FFF1FE80FF91F25
:10263000EA5CFB4F808161E08F730E947402FF911E
:10264000EF91DF91CF91BF91AF919F918F917F914A
:102650006F915F914F913F912F910F900FBE0F900F
:102660001F90189580E49CE99093890080938800DE
:102670008FEF80930202E3CFCF92DF92EF92FF922F
:102680000F931F93E82FF92F05C00150110921095D
:10269000310961F1908196239417B9F305C0015077
:1026A00011092109310911F1908196239413F7CF73
:1026B000C12CD12CE12CF12C0AC08FEFC81AD80AFA
:1026C000E80AF80A0C151D052E053F0579F08081F2
:1026D0008623841791F36C2D7D2D8E2D9F2D1F91B8
:1026E0000F91FF90EF90DF90CF90089560E070E041
:1026F00080E090E01F910F91FF90EF90DF90CF90DE
:1027000008950F931F93CF93DF93EC018B0188857E
:102710009985029749F46130710509F436C04CF58A
:1027200060E00115110591F188859985049749F4B8
:102730000130110509F451C09CF50115110509F48A
:102740003BC088859985059709F0C5C00A301105F9
:1027500008F0C1C0F801E155FC4E0C94C8260114E4
:102760000B1419142B14431445144B1455146314EF
:1027700069146230710591F060E003301105A1F633
:102780008C850E94740260E005C061E08C850E9427
:10279000740261E08E850E947402C6CF61E0F0CFC2
:1027A0000230110501F10330110559F661E08C8505
:1027B0000E94740260E01CC061E08C850E9474027B
:1027C00060E08E850E94740261E088890E94740234
:1027D00060E08A890E947402B4CF60E08C850E9418
:1027E000740261E0EECF60E08C850E94740261E0CB
:1027F0008E850E94740260E088890E94740261E004
:10280000E8CF60E08C850E94740261E08E850E94B2
:10281000740261E009C060E08C850E94740261E08E
:102820008E850E94740260E088890E94740260E0D4
:102830000DC060E08C850E94740261E08E850E946C
:10284000740260E088890E94740261E08A890E94B3
:10285000740261E011C060E08C850E94740261E046
:102860008E850E94740260E088890E94740261E093
:102870008A890E94740260E08C89DF91CF911F9158
:102880000F910C94740261E0E7CF61E08C850E94A7
:10289000740260E0E5CF61E08C850E94740260E024
:1028A0008E850E94740261E0DFCF61E08C850E941A
:1028B000740260E08E850E94740261E088890E9443
:1028C000740260E0D5CF61E08C850E94740260E004
:1028D0009DCF60E0F9CFDF91CF911F910F910895C7
:1028E000CF93DF93DC0126E0629FA00DB11D112480
:1028F00090965C934E935F9721E091962C939197DD
:10290000FC01E359FF4F0190F081E02DEC01C45927
:10291000DF4F2881222341F0309719F0DC01662334
:1029200029F0DF91CF9108953097D9F35C968C917F
:10293000DF91CF910994CF92DF92EF92FF920F93A4
:102940001F93CF93DF93EC01162F042FFC0186E039
:10295000689FE00DF11D112411A2878D90A1813097
:10296000910509F180F08230910509F443C0039785
:1029700009F445C0DF91CF911F910F91FF90EF9027
:10298000DF90CF9008954423A9F341E050E0CE01B9
:102990000E9470140E943603C85ADF4F68837983FF
:1029A0008A839B83E7CF0E943603FE01E85AFF4FDC
:1029B000C080D180E280F380AB01BC014C195D097D
:1029C0006E097F09729680819181B0E0A0E0841742
:1029D0009507A607B70770F442E050E0612FCE01DB
:1029E000DF91CF911F910F91FF90EF90DF90CF90EB
:1029F0000C94701443E050E00111BCCFEFCF50E0D5
:102A000040E0ECCF1092900310928F0388EE93E099
:102A1000A0E0B0E08093910390939203A09393037E
:102A2000B09394032DEB31E030938E0320938D030C
:102A300025EC30E030939A032093990324EC30E0A6
:102A400030939C0320939B0320EC30E030939E0353
:102A500020939D0321EC30E03093A00320939F034B
:102A600022EC30E03093A2032093A10326EC30E067
:102A70003093A4032093A3031092A6031092A703FC
:102A80001092A8031092A90310922D0410922C0406
:102A900080932E0490932F04A0933004B0933104BC
:102AA0008FEC91E090932B0480932A04EBE5F4E003
:102AB00023E734E04FEF68EB7BE080915A048C30E1
:102AC000B0F491E0980F90935A04808390E0DC0179
:102AD000AA0FBB1FA80FB91FAA5CBB4F12967C930D
:102AE0006E93119733962E173F0739F70895408359
:102AF000F9CFCF93DF93CDB7DEB76F970FB6F894CA
:102B0000DEBF0FBECDBF789484B5826084BD84B52E
:102B1000816084BD85B5826085BD85B5816085BDD8
:102B200080916E00816080936E0010928100809190
:102B30008100826080938100809181008160809318
:102B40008100809180008160809380008091B1003D
:102B500084608093B1008091B00081608093B00068
:102B600080917A00846080937A0080917A008260FC
:102B700080937A0080917A00816080937A008091BE
:102B80007A00806880937A001092C100E0919D03E2
:102B9000F0919E0382E08083E0919903F0919A0383
:102BA0001082E0919B03F0919C0380E1808310925E
:102BB000A503E091A103F091A20386E08083E09158
:102BC0009F03F091A003808180618083E0919F0347
:102BD000F091A003808188608083E0919F03F09151
:102BE000A003808180688083E0919F03F091A0031F
:102BF00080818F7D80838091A102882309F180915B
:102C0000A3020E944B02182F8130C1F4809103016E
:102C1000811114C08091A2020E944B02209179027E
:102C200030917A02019709F4D5C0215031093093CF
:102C30007A022093790281E00E945B0F10930301D6
:102C40001091020117FD15C0812F0E944B02082F21
:102C500081110DC080910101813049F41F8B41E049
:102C6000BE01695E7F4F8BE190E00E942E0F0093C2
:102C700001018DE893E00E943606181619060CF043
:102C8000BDC08DE893E00E941406182FA82E8EEF89
:102C9000810F8F3708F0B2C00E9436036B017C01B0
:102CA00000E08DE893E00E943606181619060CF035
:102CB00099C08DE893E00E941406BB24B394B00E33
:102CC000E02FF0E0EC54FD4F80830E9436036B014F
:102CD0007C010B2D0A1528F38091B4029091B50266
:102CE000982789279827FC013197ED36F10508F0E0
:102CF0009FC0E358F94E0C94C8260B171B172817D2
:102D00003A17591718171817B917D21708182E1885
:102D10003B18491855186C187D18181718171817EC
:102D20001817181718178418961833192F1E181704
:102D30001817D722FB22BF19F619131A651AFF1AA2
:102D4000C21BCD1B1E1CDE1CEF1C1C1D571D901D25
:102D50009E1DC51DEF1D001E141E181718171817ED
:102D60001817181718171817181718175220772040
:102D7000FF2017214421652178218A213F1ED21E80
:102D800018171817181718171817181718171817CB
:102D900018171817181718171817BE2121224D22B7
:102DA00018171817181718171817181718171817AB
:102DB000181718171817181718171817181718179B
:102DC000181718175923E6231817FB231817181775
:102DD000112432242F5F3F4F30937A0220937902DF
:102DE00082E02ACF0E9436036C197D098E099F0963
:102DF000633371058105910508F46CCF80E090E0A4
:102E0000892B09F4F8CE0E944206882309F4F3CEF8
:102E10000E940000F0CE6091B702613019F062307C
:102E200009F060E08091B6020E94A20281E090E089
:102E30000E949D0FE3CF61E08091B702811101C034
:102E400060E08091B6020E94740282E090E0F0CFD0
:102E50008091B6020E944B0221E0892B09F420E008
:102E60002E8B41E0BE016A5E7F4F83E090E00E94BE
:102E70002E0FC4CF8091B6028E3008F08E5087702E
:102E8000806480937C0080917A00806480937A00D3
:102E900080917A0086FDFCCF809178009091790036
:102EA00099838A8342E0BE016F5F7F4F84E090E0A8
:102EB000DECF0091B7021091B8021027012710272A
:102EC000F090B60261E08F2D0E94A202011511055B
:102ED00029F460E08F2D0E94740229C00F3F110574
:102EE00011F461E0F7CFEF2DF0E0E358FF4FE491EC
:102EF000E33029F140F4E130B1F0E230D9F00038AC
:102F000011057CF7E6CFE73021F1E83051F1E430EC
:102F1000B1F78091800080628093800010938B00D5
:102F200000938A0004C084B5806884BD07BD85E035
:102F300090E07ECF84B5806284BD08BDF8CF8091DB
:102F4000800080688093800010938900009388003F
:102F5000EECF8091B00080688093B0000093B30002
:102F6000E6CF8091B00080628093B0000093B400FF
:102F7000DECF61E08091B702811101C060E020E402
:102F800032E44FE050E08091B6020E94CE0F998368
:102F90008A837B836C8344E0BE016F5F7F4F88E050
:102FA00090E065CFA090B802C090B702B090B60292
:102FB00010E000E0D12C77E0E72EF12C61E08C2DC1
:102FC0000E9474028B2DA11019C00E944B02002E8A
:102FD00001C0880F0A94EAF7D82A60E08C2D0E947D
:102FE00074020F5F1F4F0830110541F7DD8A41E081
:102FF000BE016B5E7F4F89E090E039CF0E944B02AB
:103000009701201B310B01C0880F2A95EAF7E4CF06
:103010001091B902D090B802F090B702E090B602D9
:1030200008E0612FD11012C061708E2D0E947402D1
:10303000169561E08F2D0E94740260E08F2D0E9432
:103040007402015071F78AE090E0F2CE661F6627A5
:10305000661F8E2D0E947402110FEBCF0E94360363
:1030600099838A837B836C8344E0BE016F5F7F4FCB
:103070008BE090E0FCCE6091B6027091B7027627AB
:103080006727762790E080E00E9403038CE090E0C1
:10309000CFCE8091B6029091B702982789279827C2
:1030A0000E940F028DE090E0C3CE2091B9023091D2
:1030B000BA0232272327322750E040E06091B7025E
:1030C0007091B8027627672776278091B6020E9412
:1030D00072038EE090E0ACCE6091B7027091B802BE
:1030E00076276727762720E030E0A9018091B60295
:1030F0000E9472038FE090E09BCE8091B6020E9406
:10310000460380E190E094CE8091B302883060F471
:1031100091E0980F9093B3028C8B41E0BE016C5EFE
:103120007F4F87E190E0A3CE8FEFF6CF0091B602FC
:10313000083008F095C010E06801CC0CDD1CC60119
:10314000800F911F9C01255A3B4F7901D9018C9129
:103150008C3008F085C08090B8029090B902A090A1
:10316000BA02B090BB027090B70261E0872D0E9456
:10317000A202F7018081282F30E0F901EE0FFF1F36
:10318000E20FF31FEA5CFB4F272D2F73722E908105
:10319000907C792A708298248924982420E232E055
:1031A0002819390937FF02C02D5F3F4F3595279504
:1031B00035952795D70111962C93F601E00FF11F55
:1031C000E55AFB4FBA24AB24BA2420E639E02A1989
:1031D0003B0937FF02C02D5F3F4F35952795359549
:1031E000279522832CE0622F0E949426829FB001B3
:1031F000112430E020E0AB01420F531FFA01EE0F23
:10320000FF1FE40FF51FEA5CFB4F908196FD16C08F
:103210002F5F3F4F2C30310571F781110FC0109295
:10322000800082E0809381001092850010928400DB
:10323000B19A80916F00826080936F000C0D1D1D0C
:10324000F801E55AFB4FE0818E2F90E0FC01EE0F74
:10325000FF1FE80FF91FEA5CFB4F808180648083C9
:1032600088E190E0E5CD0091B602083008F084C016
:10327000E02EF12CA091B702B091B802BA27AB278B
:10328000BA278701000F111FA032E2E0BE070CF041
:103290003EC0F801EE0DFF1DE55AFB4F818148E865
:1032A000842E912C881A910887FD9394880C991C80
:1032B000880C991C092C000CAA08BB08828128E5FF
:1032C00032E0281B310987FD3395220F331F220F6F
:1032D000331F032E000C440B550B281939094A09DA
:1032E0005B09A53BB10514F0A4EBB0E0B7FF02C049
:1032F000B0E0A0E00E94812424EB30E040E050E008
:103300000E945724820E931EA41EB51ED4010E0DDA
:103310001F1DF801E55AFB4F20812C3068F53181E3
:1033200088E890E0831B910937FD9395880F991FDA
:10333000880F991FA817B9077CF0328188E592E0C1
:10334000831B910937FD9395880F991F880F991F4B
:10335000A817B9070CF4CD010297880F991F4FB732
:10336000F89430E0F901EE0FFF1FE20FF31FEA5C63
:10337000FB4F928381834FBF89E190E059CD8091CB
:10338000B1029091B202009711F00E946A2783E186
:1033900090E00E94CE26DC018091B7022091B60217
:1033A00015962C93159716968C93169730E0F90185
:1033B000E155FF4FE4911796EC931797F901E55605
:1033C000FF4FE4911896EC93189720E83EE340E015
:1033D00050E01D962D933D934D935C935097B09381
:1033E000B202A093B1028FE190E022CD0091B10230
:1033F0001091B2020115110599F062E0D8011596FD
:103400008C910E94A2020E943603605D7740810980
:103410009109F801618772878387948787E3828B9C
:1034200080E290E005CD0091B1021091B20260E01F
:1034300070E0CB010115110581F1C8010E941C0E3D
:10344000882351F0D80116968C918B3028F08D305E
:1034500040F08551823040F160E070E080EC9FE701
:103460001CC0F801618170E090E080E00E949B2523
:103470002DEC3CEC4CEC5DE30E9427266B017C01BB
:10348000D8016C9170E090E080E00E949B259B0148
:10349000AC01C701B6010E94BB24AB01BC0181E2B3
:1034A00090E00E94760FAACCF801608171817627A6
:1034B0006727762790E080E00E9499252DEC3CEC70
:1034C0004CEC5DE30E942726E8CF0091B1021091F9
:1034D000B20260E070E0CB010115110589F1B090F6
:1034E000B602C8010E941C0E882349F0D801169626
:1034F0008C918C3009F462C038F48B3031F160E08B
:1035000070E080EC9FE71CC085518230C0F7F80165
:10351000F2806F2D70E0762F662766277F77838194
:10352000682B90E080E00E9499252DEC3CEC4CEC5F
:103530005DE30E942726F7FC9058F1E0BF1689F161
:10354000AB01BC0182E290E0ACCFF801628170E097
:1035500090E080E00E9499256B017C01D8011396D0
:103560001C9117FF0AC0AC019B0160E070E080E88D
:103570009FEB0E94BA246B017C011F70612F70E0E9
:1035800090E080E00E949B252DEC3CEC4CEC5DE350
:103590000E942726A70196010E94BB24B1E0BB121E
:1035A000CFCF26E636E646EE5FE30E94272620E0F0
:1035B00030E040E052E40E94BB24C2CFF801A28078
:1035C0006A2D70E090E080E00E9499256B017C01FB
:1035D000D80113966C916F7070E090E080E00E94CB
:1035E0009B252DEC3CEC4CEC5DE30E942726A701CB
:1035F00096010E94BB24A7FED1CF9058CFCFE09078
:10360000B702F090B8020091B90210E08091BA02BE
:10361000882309F4A8C090E080E0082B192BC09003
:10362000AF02D090B002C114D104A9F0D60119960E
:103630008D919C910E946A27F6018681978197FD62
:1036400003C060E00E94A202C6010E946A27109295
:10365000B0021092AF0286E190E00E94CE266C018B
:10366000B090B602DC0111961C92119718961C922C
:10367000FC011786108A118A128A980196E0369505
:1036800027959A95E1F723702687C80134E096952F
:1036900087953A95E1F783708387A80156954795FA
:1036A0005695479543704487902F9370958791E086
:1036B0000F3F110511F008F090E0D6019C932813FC
:1036C00055C083E090E0FE24EF24FE24E89E8001B4
:1036D000E99E100DF89E100D1124F6011583048348
:1036E000C8010E94CE26D6011A969C938E931997F4
:1036F000009709F43EC0A80170E060E00E94F32743
:10370000F601F382E2820B2D10E0F60117830683A7
:103710008181882341F061E08B2D0E94A20260E04C
:103720008B2D0E947402F801E556FF4FE491F0E002
:10373000EE0FFF1FED58FF4F85919491D6015496DF
:103740009C938E935397F801E155FF4FE491559662
:10375000EC93D092B002C092AF02C6010E94180F43
:1037600083E290E065CB80E091E057CF84E090E089
:10377000AACF15961C921E92149713961C921E9215
:103780001297C1CF8091AF029091B002009711F0D3
:103790000E94180F84E290E04BCBE091AF02F091D1
:1037A000B0023097E9F18091B6029091B702982764
:1037B00089279827228133818217930788F54091C2
:1037C000BA022091B9023091B8025085552361F0B8
:1037D000359FB0011124372F529FB0011124272F9C
:1037E000549FA0011124452FA685618572855385BC
:1037F000A51319C0DC01AA0FBB1F8A0F9B1F860FE0
:10380000971FA385A80FB92FB11D3C93A485A80FBE
:10381000B92FB11D2C932585820F911DFC0140838A
:1038200085E290E005CB880F991F880F991F860FBE
:10383000971FA80FB92FB11D1C92E3CF0091AF02C3
:103840001091B0020115110509F47AC0D80119963A
:103850008D919C91892B09F473C00E94DE02F801BE
:10386000C784D088E188F2886C157D058E059F0598
:1038700020F46787708B818B928BF801C784D08886
:10388000E188F2886C197D098E099F096C327140BC
:103890008105910510F3F894D80114968D919C91AF
:1038A00015979A8789871996ED91FC917F01BFEF53
:1038B000EB1AFB0A80818B8BF80190810388F489D5
:1038C000E02DD80155968C91992309F43CC0908144
:1038D000982B9A8B908180958923898B89898E87F3
:1038E00088E08D873A8949896B895D852E85898530
:1038F0009A85D701308367FD232F5A952083242F83
:1039000039F0661F00C000004083000000C0F2CF05
:1039100058E06D9140830000019761F7D8015496FB
:10392000FC93EE9353976B8B5D872E879A878987DD
:1039300078940E94DE02F8016787708B818B928BEE
:1039400086E290E075CA9081982B9A8B9081809541
:103950008923898B8989888B88E08F873A8949896F
:103960006B895F85288989859A85D701308367FDB2
:10397000232F00C000C0208300C000C000C000C0D2
:1039800000C040830000242F5A9541F0661F0000BC
:1039900000C000C000C000C000C0E8CF58E06D917A
:1039A00000C0408300C0019709F7D8015496FC93EA
:1039B000EE9353976B8B5F87288BB8CFE091AF0264
:1039C000F091B002309741F04481558170E060E0A1
:1039D000818592850E94F32787E290E029CA1091A1
:1039E000AE02143038F581E0810F8093AE02212FB2
:1039F00030E08091B602F901E655FD4F80832A55EB
:103A00003D4F9091B702D9019C9361E00E94A202C0
:103A100060E08091B6020E94740260E08091B7027B
:103A20000E94A2021C8741E0BE01645F7F4F88E2D2
:103A300090E01DCA1FEFF6CF8091B6029091AE02C2
:103A400040E050E0BA01891778F590E0FC01E655B6
:103A5000FD4F10818A559D4FFC01008160E0812F50
:103A60000E94740283E090E00197F1F761E0812FFA
:103A70000E94740283E290E00197F1F760E0812FE9
:103A80000E94740220E335E740E050E061E0802FBF
:103A90000E94CE0F0E94992520E030E048E652E4D3
:103AA0000E942725AB01BC0189E290E0FACC80910D
:103AB000A4029091A502009711F00E946A2785E068
:103AC00090E00E94CE268C019091B7028091B602C0
:103AD000D8018C9311969C93119724E630E01496AC
:103AE0003C932E93139760E00E94A20260E0F801DD
:103AF00081810E94A20260E0D8018C910E94740230
:103B000060E0F80181810E9474021093A502009385
:103B1000A4028FE0D80112968C938AE290E088C9C3
:103B2000E091A402F091A502309729F08091B602AD
:103B30008770886082838BE290E07AC98091A402CA
:103B40009091A5020097F1F02091B6023091B70252
:103B5000322723273227C090B902E090B80201E053
:103B60004091BA02411101C000E0A90137FF04C031
:103B700044275527421B530B66EF37FF6AE020E0CE
:103B80000E945E0D8CE290E053C98091A402909156
:103B9000A5020097F9F06091B6027091B7027627FE
:103BA00067277627C090B902E090B80201E0209123
:103BB000BB02211101C000E02091BA02AB0177FFE6
:103BC00004C044275527461B570B77FF06C066EFF6
:103BD0000E945E0D8DE290E02BC96AE0F9CF8091E2
:103BE000A4029091A502009741F02091B702409164
:103BF000B80269EB72E00E941B0D8EE290E018C9DA
:103C00008091A4029091A502009759F019821A821E
:103C10001B821C8220E044E0BE016F5F7F4F0E9448
:103C20001B0D8FE290E004C91091B6021093A3021D
:103C30000091B7020093A20262E0812F0E94A202CB
:103C400062E0802F0E94A202812F0E944B0280938B
:103C5000030181E08093A10280E390E0E9C8109124
:103C6000B6021093020162E0812F0E94A202812F0E
:103C70000E944B02809301018AE190E0D9C88091B3
:103C8000B602833009F084E09091B70290939D02D0
:103C90009091B80290939E029091B90290939F02E6
:103CA0009091BA029093A002ABEBB2E0E9E9F2E0A6
:103CB00010E09D9191931F5F8113FBCF29EA31E0C2
:103CC000412F50E089E892E064E0FC01D90170E006
:103CD0000D9101937F5F1713FBCF61502C5F3F4F16
:103CE000840F951F6111F1CF809187029091880216
:103CF000009711F00E946A278FE690E00E94CE267E
:103D0000FC01128216821582178283EA91E0918368
:103D10008083DF015C96CD01CC961C9214961C9298
:103D20001E92139715961C9215971696A817B90709
:103D3000A1F7DF01AE59BF4F8DE992E011969C9338
:103D40008E93129689E992E011969C938E93129627
:103D500084E08C9311961C93179789E892E0119652
:103D60009C938E9318962AE030E011963C932E9304
:103D7000129684EF91E011969C938E931396119670
:103D80001C921E9251971D921D921D921C92139788
:103D900050961C92F0938802E093870282E490E0B0
:103DA0000C941817009187021091880201151105D3
:103DB00009F476C1A80144595F4F598F488F81E0BB
:103DC000DA018C930E943603F801E45AFF4FFB8F0F
:103DD000EA8FC080D180E280F380AB01BC014C1936
:103DE0005D096E097F093C9680819181B0E0A0E079
:103DF00084179507A607B70708F04FC1D12C2801F3
:103E0000F6E64F0E511C780122E6E20EF11CD201BB
:103E10008C91D81698F4F701A081B181CD018D0D58
:103E2000911DD801ED91FC910190F081E02D42E0CF
:103E3000DC016C91C8010995D394E9CF312CF801CC
:103E4000E959FF4FFD8FEC8F3801F4E66F0E711CBE
:103E500098012E593F4F3F8F2E8FAC8DBD8D8C9189
:103E6000381608F07EC0C32CD12CF301A081B1819B
:103E7000CD018C0D9D1DD801ED91FC910190F0813B
:103E8000E02D41E0DC016C91C8010995F301A081AE
:103E9000B181CD018C0D9D1DD801ED91FC91028069
:103EA000F381E02D40E0DC016C91C801099581E0CF
:103EB00090E0A0E0B0E0032C04C0880F991FAA1F77
:103EC000BB1F0A94D2F74C015C01A094B094212C42
:103ED000D801ED91FC91D2018C91281618F5E22CB5
:103EE000F12CAE8DBF8D8D919C91DC01AE0DBF1D6F
:103EF0000480F581E02D6C91C8010995EE0CFF1C42
:103F0000F801EE0DFF1D892B41F4808591858829EC
:103F10009929918780872394DBCF808591858A2199
:103F20009B21F7CFD3018D919C91DC01AC0DBD1D80
:103F30000280F381E02D41E06C91C8010995F30105
:103F400080819181C80ED91ED801ED91FC9101901C
:103F5000F081E02D40E0D6016C91C80109953394C1
:103F60007CCF5801C801CC967801F701278D30A18C
:103F7000232B31F4148E2FEF3FEF368F258F11A2B4
:103F800036E0E30EF11C8E159F0579F7712C480180
:103F900040E6840E911CE6E03E2ED2018C9178160C
:103FA00008F053C0612CC72CD12CB4E0CB0ED11C2F
:103FB000CC0CDD1CC00ED11EEC8DFD8D80816816F1
:103FC00008F041C0D6014D915C91062C02C0569577
:103FD00047950A94E2F7789EC0011124860D911D41
:103FE000F80160E0258D368D8217930709F45DC4D2
:103FF0006F5F36966A30B1F740FF23C0F80170E07A
:1040000060E0248D211117C0D401ED91FC91E80FDF
:10401000F91F2081369EF001379EF00D1124E00F2C
:10402000F11F248F968F858F10A2178E41E0C80153
:104030000E949B1406C06F5F7F4F36966A307105F1
:1040400001F76394B9CF7394A8CFD12CF50181A166
:104050008111D82EF6E0AF0EB11CAE14BF04B1F73B
:104060000E943603AA8DBB8D6D937D938D939C9397
:104070001397DD2091F0F80181A1882371F0878DDD
:1040800090A1019751F4848D8B8741E0BE01655F5B
:104090007F4F83E490E00C943717A88DB98D1C9264
:1040A00080E0F2CF8091850290918602009711F016
:1040B0000E946A278CE090E00E94CE26FC0180914D
:1040C000B8029091B7022091B6021382128247E99A
:1040D00051E0518340832483918782871386F09334
:1040E0008602E09385028AE390E00C941817009111
:1040F0008502109186020115110509F47CC0109209
:10410000800210927F0210926A0310928C030E9428
:104110005D0A82E493E090937C0280937B0283E4C7
:1041200093E090937E0280937D02F8011582828550
:10413000823010F098E09583D80118968C9362E352
:1041400070E080E090E00E940303F8016385C801FD
:104150000E947A0C68EE73E080E090E00E94030316
:1041600060E3C8010E94F50F5BE4E52E56E4F52EEE
:10417000C7010197F1F760E3C8010E94F50FC7017D
:104180000197F1F760E3C8010E94F50F83E592E023
:104190000197F1F760E2C8010E94F50FD80115966A
:1041A0006C91606240E0C8010E940E1084E0F8014A
:1041B000868340E06CE0C8010E940E1040E061E0A0
:1041C000C8010E940E106BE3E62E6FE1F62EC701C8
:1041D0000197F1F782E0D80117968C9340E066E0F2
:1041E000C8010E940E1040E062E0C8010E940E105B
:1041F000C7010197F1F78BE390E00C9418178091B9
:10420000850290918602009751F02091B6022223F8
:1042100051F028E0FC01238760E00E947A0C8CE3D7
:1042200090E00C941817DC011B961C92F5CF80913E
:10423000850290918602009719F12091B702609152
:10424000B60238E0EAE0F1E0DE01119601900D924D
:104250003A95E1F7FC013085321710F42FEF230F68
:1042600030E0220F331F41E050E04C0F5D1F240F60
:10427000351FD9012C91620F606840E00E940E103A
:104280008DE390E00C94181780918502909186023E
:10429000892BB9F0E090B60207EB12E0F12CEF1495
:1042A00081F08091850290918602F80161918F01E1
:1042B000DC01ED91FC910190F081E02D0995F394E2
:1042C000EECF8EE390E00C941817809185029091C8
:1042D0008602009749F0DC01ED91FC910190F0819C
:1042E000E02D6091B60209958FE390E00C941817C9
:1042F0008091850290918602009741F040E061E054
:104300000E940E108BE39FE10197F1F780E490E0AB
:104310000C941817C0908502D0908602C114D10465
:1043200049F1E7EBF2E08E010F5F1F4FCE010996D6
:1043300078012191D7012D937D018A179B07C9F739
:104340006091B6026770B8E06B9FB00111246064A1
:1043500040E0C6010E940E10F80161918F01D60164
:10436000ED91FC910190F081E02DC6010995E016D8
:10437000F10691F781E490E00C941817E090B602F2
:10438000F090B702FE24EF24FE24809183029091E6
:104390008402009711F00E946A278AE190E00E944F
:1043A000CE268C012091BB0230E04091B90250E052
:1043B0006091BA0270E08091B802F801138612860B
:1043C00011821082D801168A178A108E118EF782F8
:1043D000E682E82FF0E01D96FC93EE931C971F9663
:1043E0007C936E931E9751965C934E935097539681
:1043F0003C932E93529761E00E94A20261E0F80183
:1044000086850E94A20261E0D80150968C910E949C
:10441000A20261E0F80182890E94A202D8015596A9
:104420001C921E925497E4E0F0E01996FC93EE93F0
:104430001897109384020093830281E590E00C9416
:10444000181700918302109184020115110509F1DA
:10445000D80116962D913C91032E000C440B550B60
:1044600060E077E883E993E00E945724CA01B9012C
:10447000C090B602D090B702DC24CD24DC24960193
:1044800050E040E00E945724F801228333834483A4
:10449000558382E590E00C941817E090B602F090F6
:1044A000B70283E590E00E949D0F00918302109176
:1044B00084020115110511F40C94FE16FE24EF245C
:1044C000FE246701F7FE04C0CC24DD24CE18DF08EB
:1044D0001E141F040CF053C081E090E0D8018D93AE
:1044E0009C93C114D10411F40C94FE160E94DE02B8
:1044F000D80156968D909D90AD90BC9059972B0108
:104500003C01481859086A087B0812968D909D90C6
:10451000AD90BC901597481459046A047B0408F3C5
:10452000F801668B778B808F918F828593852081B0
:1045300031812130310551F501969387828726819B
:1045400037818217930711F413861286F1E0CF1A90
:10455000D108D8011A968D919C911B9718962D9190
:104560003C916AE070E02530310511F064E070E0C4
:104570000E94B426BC01C8010E948113B2CFEF286B
:1045800009F4AFCFF80111821082ABCF892B41F42F
:1045900016968D919C9117971B969C938E931A97C4
:1045A000F80182859385019793878287CFCF6091A9
:1045B000B7027091B80276276727762761157105D3
:1045C000B1F00091B9021091BA021027012710270B
:1045D0006801F12CE12CA70196018091B6020E949E
:1045E0007203012B21F0C701B6010E9403038DE184
:1045F00090E00C941817B090B602E090B702F090DB
:10460000B802FE24EF24FE24B5E090E080E0BA1565
:1046100040F4E12FE550FF0BCF01969587959695D5
:1046200087958E159F0508F47C018EE190E00E942D
:104630009D0F84EBC82E82E0D82E912C812C8E14F5
:104640009F0491F12FEF821A920AD60115966C9170
:10465000159716968C911697762F682F17960C91B2
:10466000179718968C91102F082F6115710581F0FE
:104670002801712C612CA30192018B2D0E947203E1
:10468000C301B201012B69F4F4E0CF0ED11CD7CFE6
:1046900001151105C9F38B2D0E944603B80190E066
:1046A00080E00E940303F0CF8B2D0E9446030C9400
:1046B000FE168091810290918202009731F00E9453
:1046C0006A2710928202109281028AE390E00E948F
:1046D000CE268C01FC011382128210AE11AE8BE843
:1046E00091E0918380837801F4E0EF0EF11CD80112
:1046F00015961C921E92149759961C9259975C9687
:104700001C92F801108A118A128A138A8FEF828F05
:10471000868FB296C801C896DD24DA94D1928E179E
:104720009F07E1F78AE997E0D80119969C938E9349
:1047300018978FE898E01B969C938E931A978AEDB2
:104740009BE01D969C938E931C9786E499E01F96A0
:104750009C938E931E9730E020E040E069E0C70113
:104760000E949A07F801D5A6D6A6D7A61093820272
:10477000009381020084F185E02D30E020E040E0EC
:104780006AE0C7010995BE016F5F7F4F88E0DB01DA
:104790001D928A95E9F7C7010E94EC06D801189688
:1047A000ED91FC9130E020E040E06BE0C70109951D
:1047B000E0918102F091820283EC90E0958B848BF2
:1047C00010AE11AE86E690E00C941817809181022D
:1047D00090918202009759F0BE016F5F7F4F28E0F1
:1047E000FB0111922A95E9F704960E94EC0687E6F0
:1047F00090E00C941817E0918102F09182023097BA
:1048000061F08091B7028695869586959091B60263
:1048100096959695969590AF81AF89E690E00C9429
:1048200018178091810290918202892BB9F0E09053
:10483000B60207EB12E0F12CEF1481F080918102B7
:1048400090918202D8016D918D01DC01ED91FC9176
:104850000190F081E02D0995F394EECF8CE690E085
:104860000C9418178091810290918202892BC9F0D3
:10487000E090B60207EB12E0F12C8091810290915A
:104880008202DC01ED91FC910190F081E02DEF14AA
:1048900031F0D8016D918D010995F394EECF6AE066
:1048A00009958DE690E00C9418174170C0CB052E49
:1048B00097FB1EF400940E946E2457FD07D00E94BF
:1048C000892407FC03D04EF40C946E245095409537
:1048D000309521953F4F4F4F5F4F089590958095AC
:1048E000709561957F4F8F4F9F4F08950E94AB2425
:1048F000A59F900DB49F900DA49F800D911D112434
:104900000895B7FF0C9476240E947624821B930BA3
:104910000895A1E21A2EAA1BBB1BFD010DC0AA1F00
:10492000BB1FEE1FFF1FA217B307E407F50720F018
:10493000A21BB30BE40BF50B661F771F881F991F93
:104940001A9469F760957095809590959B01AC01DC
:10495000BD01CF010895A29FB001B39FC001A39FE5
:10496000700D811D1124911DB29F700D811D1124A8
:10497000911D08955058BB27AA270E94D2240C9459
:10498000ED250E94DF2538F00E94E62520F039F45D
:104990009F3F19F426F40C94DC250EF4E095E7FB18
:1049A0000C94D625E92F0E94FE2558F3BA1762070A
:1049B00073078407950720F079F4A6F50C94202658
:1049C0000EF4E0950B2EBA2FA02D0B01B90190012A
:1049D0000C01CA01A0011124FF27591B99F0593F6E
:1049E00050F4503E68F11A16F040A22F232F342FB6
:1049F0004427585FF3CF469537952795A795F04004
:104A00005395C9F77EF41F16BA0B620B730B840B18
:104A1000BAF09150A1F0FF0FBB1F661F771F881FD0
:104A2000C2F70EC0BA0F621F731F841F48F4879528
:104A300077956795B795F7959E3F08F0B0CF93951A
:104A4000880F08F09927EE0F9795879508950E9493
:104A50003B250C94ED250E94E62558F00E94DF25A9
:104A600040F029F45F3F29F00C94D62551110C94A5
:104A700021260C94DC250E94FE2568F39923B1F3CE
:104A8000552391F3951B550BBB27AA276217730774
:104A9000840738F09F5F5F4F220F331F441FAA1F08
:104AA000A9F335D00E2E3AF0E0E832D091505040C4
:104AB000E695001CCAF72BD0FE2F29D0660F771F72
:104AC000881FBB1F261737074807AB07B0E809F058
:104AD000BB0B802DBF01FF2793585F4F3AF09E3FDD
:104AE000510578F00C94D6250C9421265F3FE4F311
:104AF000983ED4F3869577956795B795F7959F5F20
:104B0000C9F7880F911D9695879597F90895E1E06B
:104B1000660F771F881FBB1F621773078407BA07CA
:104B200020F0621B730B840BBA0BEE1F88F7E09525
:104B30000895E89409C097FB3EF490958095709590
:104B400061957F4F8F4F9F4F9923A9F0F92F96E9D9
:104B5000BB279395F695879577956795B795F1114E
:104B6000F8CFFAF4BB0F11F460FF1BC06F5F7F4FEB
:104B70008F4F9F4F16C0882311F096E911C07723FD
:104B800021F09EE8872F762F05C0662371F096E806
:104B9000862F70E060E02AF09A95660F771F881FD5
:104BA000DAF7880F9695879597F9089597F99F6793
:104BB00080E870E060E008959FEF80EC08950024A5
:104BC0000A941616170618060906089500240A9472
:104BD00012161306140605060895092E0394000CF8
:104BE00011F4882352F0BB0F40F4BF2B11F460FF87
:104BF00004C06F5F7F4F8F4F9F4F089557FD9058B0
:104C0000440F551F59F05F3F71F04795880F97FB90
:104C1000991F61F09F3F79F087950895121613064A
:104C20001406551FF2CF4695F1DF08C01616170679
:104C30001806991FF1CF86957105610508940895AE
:104C4000E894BB2766277727CB0197F908950E9440
:104C50003A260C94ED250E94DF2538F00E94E625C7
:104C600020F0952311F00C94D6250C94DC2511240A
:104C70000C9421260E94FE2570F3959FC1F3950F99
:104C800050E0551F629FF001729FBB27F00DB11DD0
:104C9000639FAA27F00DB11DAA1F649F6627B00D60
:104CA000A11D661F829F2227B00DA11D621F739F49
:104CB000B00DA11D621F839FA00D611D221F749F57
:104CC0003327A00D611D231F849F600D211D822F9E
:104CD000762F6A2F11249F5750409AF0F1F08823C5
:104CE0004AF0EE0FFF1FBB1F661F771F881F9150F2
:104CF0005040A9F79E3F510580F00C94D6250C94A6
:104D000021265F3FE4F3983ED4F386957795679527
:104D1000B795F795E7959F5FC1F7FE2B880F911D1B
:104D20009695879597F90895991B79E004C0991F86
:104D3000961708F0961B881F7A95C9F780950895F5
:104D4000AA1BBB1B51E107C0AA1FBB1FA617B707B1
:104D500010F0A61BB70B881F991F5A95A9F78095CD
:104D60009095BC01CD01089597FB072E16F4009491
:104D700007D077FD09D00E94A02607FC05D03EF49D
:104D8000909581959F4F0895709561957F4F0895F7
:104D9000EE0FFF1F0590F491E02D09940F931F93E0
:104DA000CF93DF938230910510F482E090E0E091A0
:104DB0007504F091760430E020E0B0E0A0E0309798
:104DC00099F42115310509F44AC0281B390B243008
:104DD0003105D8F58A819B816115710589F1FB0147
:104DE00093838283FE0111C040815181028113812E
:104DF00048175907E0F04817590799F4109761F0E0
:104E000012960C93129713961C933296CF01DF9152
:104E1000CF911F910F91089500937504109376041C
:104E2000F4CF2115310551F04217530738F0A9018D
:104E3000DB019A01BD01DF01F801C1CFEF01F9CF1C
:104E40009093760480937504CDCFFE01E20FF31F9B
:104E5000819391932250310939832883D7CF2091B0
:104E6000730430917404232B41F420910601309196
:104E7000070130937404209373042091040130914E
:104E800005012115310541F42DB73EB740910801C8
:104E900050910901241B350BE0917304F0917404C7
:104EA000E217F307A0F42E1B3F0B2817390778F001
:104EB000AC014E5F5F4F2417350748F04E0F5F1F60
:104EC0005093740440937304819391939FCFF0E0C7
:104ED000E0E09CCFCF93DF930097E9F0FC0132979D
:104EE00013821282A0917504B0917604ED0130E036
:104EF00020E01097A1F420813181820F931F20912F
:104F00007304309174042817390709F061C0F093D5
:104F10007404E0937304DF91CF910895EA01CE17F2
:104F2000DF07E8F54A815B819E0141155105B1F724
:104F3000E901FB83EA8349915991C40FD51FEC170E
:104F4000FD0761F4808191810296840F951FE9012C
:104F500099838883828193819B838A83F0E0E0E058
:104F600012968D919C9113970097B9F52D913C91D4
:104F70001197CD010296820F931F209173043091F7
:104F800074042817390739F6309751F510927604D2
:104F900010927504B0937404A0937304BCCFD383B0
:104FA000C28340815181840F951FC817D90761F4CE
:104FB0004E5F5F4F88819981480F591F518340830D
:104FC0008A819B81938382832115310509F0B0CFBB
:104FD000F0937604E09375049ECFFD01DC01C0CF11
:104FE00013821282D7CFDC0101C06D934150504033
:084FF000E0F70895F894FFCFEB
:104FF800FF01FF010000770480000000400014005A
:1050080054003F065B4F666D7D077F6F777C395E86
:1050180079711815A015C019FF1815A115C819FF21
:105028001815AE19FF1815AF19FF1815AE15D516B6
:105038008015A8163F15D316001540158D161415A2
:1050480020160015A115C815DA1612158116CF15E8
:10505800D916F115DB1640152E15A415A619FF0053
:1050680001140A6464323200127A0000042896108F
:105078000800008000400000000000AC09A20FCB2F
:105088000FCA0F000000002510D805CB0FCA0F006B
:10509800000000940C900C8D0C31323341343536BD
:1050A80042373839432A302344000000007806D8B4
:1050B800050506C506360614062806000000004B3E
:0E50C8000CAD0BCB0F830BA60B930B840B00D0
:00000001FF
